{
  "contractName": "FeesColector",
  "abi": [
    {
      "inputs": [
        {
          "internalType": "address",
          "name": "_token",
          "type": "address"
        },
        {
          "internalType": "address",
          "name": "_admin",
          "type": "address"
        }
      ],
      "stateMutability": "nonpayable",
      "type": "constructor"
    },
    {
      "anonymous": false,
      "inputs": [
        {
          "indexed": true,
          "internalType": "address",
          "name": "previousOwner",
          "type": "address"
        },
        {
          "indexed": true,
          "internalType": "address",
          "name": "newOwner",
          "type": "address"
        }
      ],
      "name": "OwnershipTransferred",
      "type": "event"
    },
    {
      "anonymous": false,
      "inputs": [
        {
          "indexed": true,
          "internalType": "address",
          "name": "student",
          "type": "address"
        },
        {
          "indexed": false,
          "internalType": "uint256",
          "name": "amount",
          "type": "uint256"
        },
        {
          "indexed": false,
          "internalType": "uint256",
          "name": "paymentId",
          "type": "uint256"
        },
        {
          "indexed": false,
          "internalType": "uint256",
          "name": "date",
          "type": "uint256"
        }
      ],
      "name": "PaymentDone",
      "type": "event"
    },
    {
      "inputs": [],
      "name": "admin",
      "outputs": [
        {
          "internalType": "address",
          "name": "",
          "type": "address"
        }
      ],
      "stateMutability": "view",
      "type": "function",
      "constant": true
    },
    {
      "inputs": [],
      "name": "owner",
      "outputs": [
        {
          "internalType": "address",
          "name": "",
          "type": "address"
        }
      ],
      "stateMutability": "view",
      "type": "function",
      "constant": true
    },
    {
      "inputs": [
        {
          "internalType": "address",
          "name": "",
          "type": "address"
        }
      ],
      "name": "paymentsRecieved",
      "outputs": [
        {
          "internalType": "uint256",
          "name": "totalPayment",
          "type": "uint256"
        },
        {
          "internalType": "uint256",
          "name": "numPayment",
          "type": "uint256"
        }
      ],
      "stateMutability": "view",
      "type": "function",
      "constant": true
    },
    {
      "inputs": [],
      "name": "renounceOwnership",
      "outputs": [],
      "stateMutability": "nonpayable",
      "type": "function"
    },
    {
      "inputs": [],
      "name": "token",
      "outputs": [
        {
          "internalType": "contract IERC20",
          "name": "",
          "type": "address"
        }
      ],
      "stateMutability": "view",
      "type": "function",
      "constant": true
    },
    {
      "inputs": [
        {
          "internalType": "address",
          "name": "newOwner",
          "type": "address"
        }
      ],
      "name": "transferOwnership",
      "outputs": [],
      "stateMutability": "nonpayable",
      "type": "function"
    },
    {
      "inputs": [],
      "name": "getContractTokenBalance",
      "outputs": [
        {
          "internalType": "uint256",
          "name": "",
          "type": "uint256"
        }
      ],
      "stateMutability": "view",
      "type": "function",
      "constant": true
    },
    {
      "inputs": [
        {
          "internalType": "string",
          "name": "session",
          "type": "string"
        },
        {
          "internalType": "uint256",
          "name": "_amount",
          "type": "uint256"
        },
        {
          "internalType": "uint256",
          "name": "_paymentId",
          "type": "uint256"
        }
      ],
      "name": "pay",
      "outputs": [],
      "stateMutability": "payable",
      "type": "function",
      "payable": true
    }
  ],
  "bytecode": "0x6080604052600a6003553480156200001657600080fd5b50604051620012fd380380620012fd83398181016040528101906200003c91906200021c565b6200005c62000050620000e660201b60201c565b620000ee60201b60201c565b81600160006101000a81548173ffffffffffffffffffffffffffffffffffffffff021916908373ffffffffffffffffffffffffffffffffffffffff16021790555080600260006101000a81548173ffffffffffffffffffffffffffffffffffffffff021916908373ffffffffffffffffffffffffffffffffffffffff160217905550505062000263565b600033905090565b60008060009054906101000a900473ffffffffffffffffffffffffffffffffffffffff169050816000806101000a81548173ffffffffffffffffffffffffffffffffffffffff021916908373ffffffffffffffffffffffffffffffffffffffff1602179055508173ffffffffffffffffffffffffffffffffffffffff168173ffffffffffffffffffffffffffffffffffffffff167f8be0079c531659141344cd1fd0a4f28419497f9722a3daafe3b4186f6b6457e060405160405180910390a35050565b600080fd5b600073ffffffffffffffffffffffffffffffffffffffff82169050919050565b6000620001e482620001b7565b9050919050565b620001f681620001d7565b81146200020257600080fd5b50565b6000815190506200021681620001eb565b92915050565b60008060408385031215620002365762000235620001b2565b5b6000620002468582860162000205565b9250506020620002598582860162000205565b9150509250929050565b61108a80620002736000396000f3fe60806040526004361061007b5760003560e01c806390a761521161004e57806390a7615214610109578063f2fde38b14610147578063f851a44014610170578063fc0c546a1461019b5761007b565b806320192a7714610080578063317d94531461009c578063715018a6146100c75780638da5cb5b146100de575b600080fd5b61009a60048036038101906100959190610aa4565b6101c6565b005b3480156100a857600080fd5b506100b16104e9565b6040516100be9190610b22565b60405180910390f35b3480156100d357600080fd5b506100dc61058c565b005b3480156100ea57600080fd5b506100f3610614565b6040516101009190610b7e565b60405180910390f35b34801561011557600080fd5b50610130600480360381019061012b9190610bc5565b61063d565b60405161013e929190610bf2565b60405180910390f35b34801561015357600080fd5b5061016e60048036038101906101699190610bc5565b610661565b005b34801561017c57600080fd5b50610185610759565b6040516101929190610b7e565b60405180910390f35b3480156101a757600080fd5b506101b061077f565b6040516101bd9190610c7a565b60405180910390f35b600073ffffffffffffffffffffffffffffffffffffffff163373ffffffffffffffffffffffffffffffffffffffff16141561020057600080fd5b6003548214610244576040517f08c379a000000000000000000000000000000000000000000000000000000000815260040161023b90610cf2565b60405180910390fd5b81600460003373ffffffffffffffffffffffffffffffffffffffff1673ffffffffffffffffffffffffffffffffffffffff16815260200190815260200160002060000160008282546102969190610d41565b925050819055506000604051806080016040528083815260200184815260200142815260200185815250905080600460003373ffffffffffffffffffffffffffffffffffffffff1673ffffffffffffffffffffffffffffffffffffffff1681526020019081526020016000206002016000600460003373ffffffffffffffffffffffffffffffffffffffff1673ffffffffffffffffffffffffffffffffffffffff1681526020019081526020016000206001015481526020019081526020016000206000820151816000015560208201518160010155604082015181600201556060820151816003019080519060200190610392929190610871565b50905050600460003373ffffffffffffffffffffffffffffffffffffffff1673ffffffffffffffffffffffffffffffffffffffff16815260200190815260200160002060010160008154809291906103e990610d97565b9190505550600160009054906101000a900473ffffffffffffffffffffffffffffffffffffffff1673ffffffffffffffffffffffffffffffffffffffff166323b872dd3330866040518463ffffffff1660e01b815260040161044d93929190610de0565b6020604051808303816000875af115801561046c573d6000803e3d6000fd5b505050506040513d601f19601f820116820180604052508101906104909190610e4f565b503373ffffffffffffffffffffffffffffffffffffffff167f78eaebe37a28490ff43ed0e95bdc47de1587156ac0069b652e1d2d9f42464e983484426040516104db93929190610e7c565b60405180910390a250505050565b6000600160009054906101000a900473ffffffffffffffffffffffffffffffffffffffff1673ffffffffffffffffffffffffffffffffffffffff166370a08231306040518263ffffffff1660e01b81526004016105469190610b7e565b602060405180830381865afa158015610563573d6000803e3d6000fd5b505050506040513d601f19601f820116820180604052508101906105879190610ec8565b905090565b6105946107a5565b73ffffffffffffffffffffffffffffffffffffffff166105b2610614565b73ffffffffffffffffffffffffffffffffffffffff1614610608576040517f08c379a00000000000000000000000000000000000000000000000000000000081526004016105ff90610f41565b60405180910390fd5b61061260006107ad565b565b60008060009054906101000a900473ffffffffffffffffffffffffffffffffffffffff16905090565b60046020528060005260406000206000915090508060000154908060010154905082565b6106696107a5565b73ffffffffffffffffffffffffffffffffffffffff16610687610614565b73ffffffffffffffffffffffffffffffffffffffff16146106dd576040517f08c379a00000000000000000000000000000000000000000000000000000000081526004016106d490610f41565b60405180910390fd5b600073ffffffffffffffffffffffffffffffffffffffff168173ffffffffffffffffffffffffffffffffffffffff16141561074d576040517f08c379a000000000000000000000000000000000000000000000000000000000815260040161074490610fd3565b60405180910390fd5b610756816107ad565b50565b600260009054906101000a900473ffffffffffffffffffffffffffffffffffffffff1681565b600160009054906101000a900473ffffffffffffffffffffffffffffffffffffffff1681565b600033905090565b60008060009054906101000a900473ffffffffffffffffffffffffffffffffffffffff169050816000806101000a81548173ffffffffffffffffffffffffffffffffffffffff021916908373ffffffffffffffffffffffffffffffffffffffff1602179055508173ffffffffffffffffffffffffffffffffffffffff168173ffffffffffffffffffffffffffffffffffffffff167f8be0079c531659141344cd1fd0a4f28419497f9722a3daafe3b4186f6b6457e060405160405180910390a35050565b82805461087d90611022565b90600052602060002090601f01602090048101928261089f57600085556108e6565b82601f106108b857805160ff19168380011785556108e6565b828001600101855582156108e6579182015b828111156108e55782518255916020019190600101906108ca565b5b5090506108f391906108f7565b5090565b5b808211156109105760008160009055506001016108f8565b5090565b6000604051905090565b600080fd5b600080fd5b600080fd5b600080fd5b6000601f19601f8301169050919050565b7f4e487b7100000000000000000000000000000000000000000000000000000000600052604160045260246000fd5b61097b82610932565b810181811067ffffffffffffffff8211171561099a57610999610943565b5b80604052505050565b60006109ad610914565b90506109b98282610972565b919050565b600067ffffffffffffffff8211156109d9576109d8610943565b5b6109e282610932565b9050602081019050919050565b82818337600083830152505050565b6000610a11610a0c846109be565b6109a3565b905082815260208101848484011115610a2d57610a2c61092d565b5b610a388482856109ef565b509392505050565b600082601f830112610a5557610a54610928565b5b8135610a658482602086016109fe565b91505092915050565b6000819050919050565b610a8181610a6e565b8114610a8c57600080fd5b50565b600081359050610a9e81610a78565b92915050565b600080600060608486031215610abd57610abc61091e565b5b600084013567ffffffffffffffff811115610adb57610ada610923565b5b610ae786828701610a40565b9350506020610af886828701610a8f565b9250506040610b0986828701610a8f565b9150509250925092565b610b1c81610a6e565b82525050565b6000602082019050610b376000830184610b13565b92915050565b600073ffffffffffffffffffffffffffffffffffffffff82169050919050565b6000610b6882610b3d565b9050919050565b610b7881610b5d565b82525050565b6000602082019050610b936000830184610b6f565b92915050565b610ba281610b5d565b8114610bad57600080fd5b50565b600081359050610bbf81610b99565b92915050565b600060208284031215610bdb57610bda61091e565b5b6000610be984828501610bb0565b91505092915050565b6000604082019050610c076000830185610b13565b610c146020830184610b13565b9392505050565b6000819050919050565b6000610c40610c3b610c3684610b3d565b610c1b565b610b3d565b9050919050565b6000610c5282610c25565b9050919050565b6000610c6482610c47565b9050919050565b610c7481610c59565b82525050565b6000602082019050610c8f6000830184610c6b565b92915050565b600082825260208201905092915050565b7f536f7272792c20616d6f756e74206d7573742062652065786163742e00000000600082015250565b6000610cdc601c83610c95565b9150610ce782610ca6565b602082019050919050565b60006020820190508181036000830152610d0b81610ccf565b9050919050565b7f4e487b7100000000000000000000000000000000000000000000000000000000600052601160045260246000fd5b6000610d4c82610a6e565b9150610d5783610a6e565b9250827fffffffffffffffffffffffffffffffffffffffffffffffffffffffffffffffff03821115610d8c57610d8b610d12565b5b828201905092915050565b6000610da282610a6e565b91507fffffffffffffffffffffffffffffffffffffffffffffffffffffffffffffffff821415610dd557610dd4610d12565b5b600182019050919050565b6000606082019050610df56000830186610b6f565b610e026020830185610b6f565b610e0f6040830184610b13565b949350505050565b60008115159050919050565b610e2c81610e17565b8114610e3757600080fd5b50565b600081519050610e4981610e23565b92915050565b600060208284031215610e6557610e6461091e565b5b6000610e7384828501610e3a565b91505092915050565b6000606082019050610e916000830186610b13565b610e9e6020830185610b13565b610eab6040830184610b13565b949350505050565b600081519050610ec281610a78565b92915050565b600060208284031215610ede57610edd61091e565b5b6000610eec84828501610eb3565b91505092915050565b7f4f776e61626c653a2063616c6c6572206973206e6f7420746865206f776e6572600082015250565b6000610f2b602083610c95565b9150610f3682610ef5565b602082019050919050565b60006020820190508181036000830152610f5a81610f1e565b9050919050565b7f4f776e61626c653a206e6577206f776e657220697320746865207a65726f206160008201527f6464726573730000000000000000000000000000000000000000000000000000602082015250565b6000610fbd602683610c95565b9150610fc882610f61565b604082019050919050565b60006020820190508181036000830152610fec81610fb0565b9050919050565b7f4e487b7100000000000000000000000000000000000000000000000000000000600052602260045260246000fd5b6000600282049050600182168061103a57607f821691505b6020821081141561104e5761104d610ff3565b5b5091905056fea2646970667358221220800c3b0eeb3160e60d88f69fcbd272f2bda823f343ba911ed8dec8b1122ec51a64736f6c634300080b0033",
  "immutableReferences": {},
  "source": "// SPDX-License-Identifier: GPL-3.0\npragma solidity ^0.8.1;\n\nimport \"@openzeppelin/contracts/interfaces/IERC20.sol\";\nimport \"@openzeppelin/contracts/access/Ownable.sol\";\n\ncontract FeesColector is Ownable {\n\n    IERC20 public token;\n    address public admin;\n    uint256 EXPECTED_FEES= 10;\n\n    event PaymentDone(\n        address indexed student,\n        uint amount,\n        uint paymentId,\n        uint date\n    );\n\n    struct Payment {\n        uint paymentId;\n        uint amount;\n        uint date;\n        string session;\n    }\n\n    struct Balance {\n        uint totalPayment;\n        uint numPayment;\n        mapping( uint => Payment ) payments;\n    }\n\n    mapping( address => Balance ) public paymentsRecieved;\n\n    constructor(address _token, address _admin) {\n        token = IERC20(_token);\n        admin = _admin;\n    }\n\n    //Show contracts Token in lock\n    function getContractTokenBalance() public view returns(uint){\n        return token.balanceOf(address(this));\n    }\n\n    //Holders can pay fees using UJTokens\n    function pay(string memory session, uint256 _amount, uint _paymentId) public payable {\n        require (msg.sender != address(0));\n        require(_amount == EXPECTED_FEES, \"Sorry, amount must be exact.\");\n\n        paymentsRecieved[msg.sender].totalPayment += _amount;\n        Payment memory payment = Payment(_paymentId, _amount, block.timestamp, session);\n        paymentsRecieved[msg.sender].payments[paymentsRecieved[msg.sender].numPayment] = payment;\n        paymentsRecieved[msg.sender].numPayment++;\n\n        token.transferFrom(msg.sender, address(this), _amount);\n        emit PaymentDone(msg.sender, msg.value, _paymentId, block.timestamp);\n    }\n\n    \n}\n\n// Token address\n//0x0019B62Da32E5b22b8dEE478aC7bB8f0bd24881a",
  "sourcePath": "/Users/mac/Desktop/blockchain-defi/decentralize-payment-smart-contract/contracts/FeesColector.sol",
  "compiler": {
    "name": "solc",
    "version": "0.8.11+commit.d7f03943.Emscripten.clang"
  },
  "schemaVersion": "3.4.3",
  "updatedAt": "2022-02-05T02:19:13.310Z",
  "networkType": "ethereum",
  "devdoc": {
    "kind": "dev",
    "methods": {
      "owner()": {
        "details": "Returns the address of the current owner."
      },
      "renounceOwnership()": {
        "details": "Leaves the contract without owner. It will not be possible to call `onlyOwner` functions anymore. Can only be called by the current owner. NOTE: Renouncing ownership will leave the contract without an owner, thereby removing any functionality that is only available to the owner."
      },
      "transferOwnership(address)": {
        "details": "Transfers ownership of the contract to a new account (`newOwner`). Can only be called by the current owner."
      }
    },
    "version": 1
  },
  "userdoc": {
    "kind": "user",
    "methods": {},
    "version": 1
  }
}